{
  "contractName": "CoinToFlip",
  "abi": [
    {
      "constant": true,
      "inputs": [],
      "name": "owner",
      "outputs": [
        {
          "name": "",
          "type": "address"
        }
      ],
      "payable": false,
      "stateMutability": "view",
      "type": "function"
    },
    {
      "constant": true,
      "inputs": [],
      "name": "lockedInBets",
      "outputs": [
        {
          "name": "",
          "type": "uint256"
        }
      ],
      "payable": false,
      "stateMutability": "view",
      "type": "function"
    },
    {
      "inputs": [],
      "payable": false,
      "stateMutability": "nonpayable",
      "type": "constructor"
    },
    {
      "payable": true,
      "stateMutability": "payable",
      "type": "fallback"
    },
    {
      "anonymous": false,
      "inputs": [
        {
          "indexed": false,
          "name": "reveal",
          "type": "uint256"
        }
      ],
      "name": "Reveal",
      "type": "event"
    },
    {
      "anonymous": false,
      "inputs": [
        {
          "indexed": true,
          "name": "beneficiary",
          "type": "address"
        },
        {
          "indexed": false,
          "name": "amount",
          "type": "uint256"
        }
      ],
      "name": "Payment",
      "type": "event"
    },
    {
      "anonymous": false,
      "inputs": [
        {
          "indexed": true,
          "name": "beneficiary",
          "type": "address"
        },
        {
          "indexed": false,
          "name": "amount",
          "type": "uint256"
        }
      ],
      "name": "FailedPayment",
      "type": "event"
    },
    {
      "constant": false,
      "inputs": [
        {
          "name": "beneficiary",
          "type": "address"
        },
        {
          "name": "withdrawAmount",
          "type": "uint256"
        }
      ],
      "name": "withdrawFunds",
      "outputs": [],
      "payable": false,
      "stateMutability": "nonpayable",
      "type": "function"
    },
    {
      "constant": false,
      "inputs": [],
      "name": "kill",
      "outputs": [],
      "payable": false,
      "stateMutability": "nonpayable",
      "type": "function"
    },
    {
      "constant": false,
      "inputs": [
        {
          "name": "betMask",
          "type": "uint8"
        }
      ],
      "name": "placeBet",
      "outputs": [],
      "payable": true,
      "stateMutability": "payable",
      "type": "function"
    },
    {
      "constant": false,
      "inputs": [
        {
          "name": "seed",
          "type": "uint8"
        }
      ],
      "name": "revealResult",
      "outputs": [],
      "payable": false,
      "stateMutability": "nonpayable",
      "type": "function"
    },
    {
      "constant": false,
      "inputs": [],
      "name": "refundBet",
      "outputs": [],
      "payable": false,
      "stateMutability": "nonpayable",
      "type": "function"
    },
    {
      "constant": true,
      "inputs": [],
      "name": "checkHouseFund",
      "outputs": [
        {
          "name": "",
          "type": "uint256"
        }
      ],
      "payable": false,
      "stateMutability": "view",
      "type": "function"
    }
  ],
  "bytecode": "0x608060405234801561001057600080fd5b50336000806101000a81548173ffffffffffffffffffffffffffffffffffffffff021916908373ffffffffffffffffffffffffffffffffffffffff160217905550611238806100606000396000f30060806040526004361061008e576000357c0100000000000000000000000000000000000000000000000000000000900463ffffffff16806311ea8acb14610090578063172f8276146100a75780631e1871e9146100d257806341c0e1b51461010257806343046844146101195780638da5cb5b1461013c578063c107532914610193578063df88126f146101e0575b005b34801561009c57600080fd5b506100a561020b565b005b3480156100b357600080fd5b506100bc610405565b6040518082815260200191505060405180910390f35b3480156100de57600080fd5b50610100600480360381019080803560ff16906020019092919050505061050e565b005b34801561010e57600080fd5b50610117610845565b005b61013a600480360381019080803560ff169060200190929190505050610a09565b005b34801561014857600080fd5b50610151610d86565b604051808273ffffffffffffffffffffffffffffffffffffffff1673ffffffffffffffffffffffffffffffffffffffff16815260200191505060405180910390f35b34801561019f57600080fd5b506101de600480360381019080803573ffffffffffffffffffffffffffffffffffffffff16906020019092919080359060200190929190505050610dab565b005b3480156101ec57600080fd5b506101f5610f36565b6040518082815260200191505060405180910390f35b6000806000808360020154431115156102b2576040517f08c379a00000000000000000000000000000000000000000000000000000000081526004018080602001828103825260338152602001807f726566756e6442657420696e207468652073616d6520626c6f636b206173207081526020017f6c6163654265742c206f72206265666f72652e0000000000000000000000000081525060400191505060405180910390fd5b600260003373ffffffffffffffffffffffffffffffffffffffff1673ffffffffffffffffffffffffffffffffffffffff168152602001908152602001600020935083600001549250600083111515610398576040517f08c379a00000000000000000000000000000000000000000000000000000000081526004018080602001828103825260228152602001807f4265742073686f756c6420626520696e20616e2027616374697665272073746181526020017f746500000000000000000000000000000000000000000000000000000000000081525060400191505060405180910390fd5b8360010160009054906101000a900460ff1691506103da8460030160019054906101000a900473ffffffffffffffffffffffffffffffffffffffff1684610f3c565b6103e4838361101c565b9050806001600082825403925050819055506103ff336110fd565b50505050565b60008060009054906101000a900473ffffffffffffffffffffffffffffffffffffffff1673ffffffffffffffffffffffffffffffffffffffff163373ffffffffffffffffffffffffffffffffffffffff161415156104f1576040517f08c379a00000000000000000000000000000000000000000000000000000000081526004018080602001828103825260218152602001807f4f6e6c79206f776e65722063616e2063616c6c20746869732066756e6374696f81526020017f6e0000000000000000000000000000000000000000000000000000000000000081525060400191505060405180910390fd5b3073ffffffffffffffffffffffffffffffffffffffff1631905090565b6000806000806000806000806000600260003373ffffffffffffffffffffffffffffffffffffffff1673ffffffffffffffffffffffffffffffffffffffff1681526020019081526020016000209850886000015497508860010160009054906101000a900460ff169650886002015495508860030160019054906101000a900473ffffffffffffffffffffffffffffffffffffffff169450600088111515610644576040517f08c379a00000000000000000000000000000000000000000000000000000000081526004018080602001828103825260228152602001807f4265742073686f756c6420626520696e20616e2027616374697665272073746181526020017f746500000000000000000000000000000000000000000000000000000000000081525060400191505060405180910390fd5b85431115156106e1576040517f08c379a00000000000000000000000000000000000000000000000000000000081526004018080602001828103825260368152602001807f72657665616c526573756c7420696e207468652073616d6520626c6f636b206181526020017f7320706c6163654265742c206f72206265666f72652e0000000000000000000081525060400191505060405180910390fd5b8960ff1643034086406040516020018083600019166000191681526020018260001916600019168152602001925050506040516020818303038152906040526040518082805190602001908083835b6020831015156107555780518252602082019150602081019050602083039250610730565b6001836020036101000a038019825116818451168082178552505050505050905001915050604051809103902093506002846001900481151561079457fe5b06925060009150600090506107a9888861101c565b905060008960030160009054906101000a900460ff1660ff168460020a161415156107d2578091505b7f1747b48b6ade85d7dc97c0f523e0e780795930a468c01b18a51546791fdd3ac08360020a6040518082815260200191505060405180910390a160008211156108205761081f8583610f3c565b5b80600160008282540392505081905550610839336110fd565b50505050505050505050565b6000809054906101000a900473ffffffffffffffffffffffffffffffffffffffff1673ffffffffffffffffffffffffffffffffffffffff163373ffffffffffffffffffffffffffffffffffffffff1614151561092f576040517f08c379a00000000000000000000000000000000000000000000000000000000081526004018080602001828103825260218152602001807f4f6e6c79206f776e65722063616e2063616c6c20746869732066756e6374696f81526020017f6e0000000000000000000000000000000000000000000000000000000000000081525060400191505060405180910390fd5b60006001541415156109cf576040517f08c379a00000000000000000000000000000000000000000000000000000000081526004018080602001828103825260318152602001807f416c6c20626574732073686f756c642062652070726f6365737365642062656681526020017f6f72652073656c662d646573747275637400000000000000000000000000000081525060400191505060405180910390fd5b6000809054906101000a900473ffffffffffffffffffffffffffffffffffffffff1673ffffffffffffffffffffffffffffffffffffffff16ff5b600080600080349350662386f26fc100008410158015610a315750678ac7230489e800008411155b1515610aa5576040517f08c379a00000000000000000000000000000000000000000000000000000000081526004018080602001828103825260178152602001807f416d6f756e74206973206f7574206f662072616e67652e00000000000000000081525060200191505060405180910390fd5b60008560ff16118015610abc57506101008560ff16105b1515610b30576040517f08c379a00000000000000000000000000000000000000000000000000000000081526004018080602001828103825260148152602001807f4d61736b2073686f756c6420626520382062697400000000000000000000000081525060200191505060405180910390fd5b600260003373ffffffffffffffffffffffffffffffffffffffff1673ffffffffffffffffffffffffffffffffffffffff1681526020019081526020016000209250600073ffffffffffffffffffffffffffffffffffffffff168360030160019054906101000a900473ffffffffffffffffffffffffffffffffffffffff1673ffffffffffffffffffffffffffffffffffffffff16141515610c39576040517f08c379a00000000000000000000000000000000000000000000000000000000081526004018080602001828103825260198152602001807f4265742073686f756c6420626520656d7074792073746174650000000000000081525060200191505060405180910390fd5b610c42856111d8565b9150838360000181905550818360010160006101000a81548160ff021916908360ff160217905550438360020181905550848360030160006101000a81548160ff021916908360ff160217905550338360030160016101000a81548173ffffffffffffffffffffffffffffffffffffffff021916908373ffffffffffffffffffffffffffffffffffffffff160217905550610cdd848361101c565b9050806001600082825401925050819055503073ffffffffffffffffffffffffffffffffffffffff1631600154101515610d7f576040517f08c379a000000000000000000000000000000000000000000000000000000000815260040180806020018281038252601d8152602001807f43616e6e6f74206166666f726420746f2070617920746865206265742e00000081525060200191505060405180910390fd5b5050505050565b6000809054906101000a900473ffffffffffffffffffffffffffffffffffffffff1681565b6000809054906101000a900473ffffffffffffffffffffffffffffffffffffffff1673ffffffffffffffffffffffffffffffffffffffff163373ffffffffffffffffffffffffffffffffffffffff16141515610e95576040517f08c379a00000000000000000000000000000000000000000000000000000000081526004018080602001828103825260218152602001807f4f6e6c79206f776e65722063616e2063616c6c20746869732066756e6374696f81526020017f6e0000000000000000000000000000000000000000000000000000000000000081525060400191505060405180910390fd5b3073ffffffffffffffffffffffffffffffffffffffff1631600154820111151515610f28576040517f08c379a00000000000000000000000000000000000000000000000000000000081526004018080602001828103825260148152602001807f6c6172676572207468616e2062616c616e63652e00000000000000000000000081525060200191505060405180910390fd5b610f328282610f3c565b5050565b60015481565b8173ffffffffffffffffffffffffffffffffffffffff166108fc829081150290604051600060405180830381858888f1935050505015610fc9578173ffffffffffffffffffffffffffffffffffffffff167fd4f43975feb89f48dd30cabbb32011045be187d1e11c8ea9faa43efc35282519826040518082815260200191505060405180910390a2611018565b8173ffffffffffffffffffffffffffffffffffffffff167fac464fe4d3a86b9121261ac0a01dd981bfe0777c7c9d9c8f4473d31a9c0f9d2d826040518082815260200191505060405180910390a25b5050565b60008060008360ff166000108015611037575060028460ff16105b15156110ab576040517f08c379a000000000000000000000000000000000000000000000000000000000815260040180806020018281038252601b8152602001807f50726f626162696c697479206973206f7574206f662072616e6765000000000081525060200191505060405180910390fd5b6064600586028115156110ba57fe5b0491506611c37937e080008210156110d7576611c37937e0800091505b6001840360ff16600201858115156110eb57fe5b04905080828603019250505092915050565b6000600260008373ffffffffffffffffffffffffffffffffffffffff1673ffffffffffffffffffffffffffffffffffffffff16815260200190815260200160002090506000816000018190555060008160010160006101000a81548160ff021916908360ff1602179055506000816002018190555060008160030160006101000a81548160ff021916908360ff16021790555060008160030160016101000a81548173ffffffffffffffffffffffffffffffffffffffff021916908373ffffffffffffffffffffffffffffffffffffffff1602179055505050565b6000805b60008360ff16111561120357600183168101905060018360ff169060020a900492506111dc565b809150509190505600a165627a7a7230582053f68435b152dd68ff5986717e230644b0bd473a6e34f6947a1764576bb083740029",
  "source": "pragma solidity ^0.4.24;\n\ncontract CoinToFlip {\n\n    uint constant MAX_CASE = 2; // for coin\n    uint constant MIN_BET = 0.01 ether;\n    uint constant MAX_BET = 10 ether;\n    uint constant HOUSE_FEE_PERCENT = 5;\n    uint constant HOUSE_MIN_FEE = 0.005 ether;\n\n    address public owner;\n    uint public lockedInBets; // 베팅한 금액 (아직 결과가 나오지 않은 금액)\n\n    struct Bet {\n        uint amount;\n        uint8 numOfBetBit;\n        uint placeBlockNumber; // Block number of Bet tx.\n        // Bit mask representing winning bet outcomes\n        // 0000 0010 for front side of coin, 50% chance\n        // 0000 0001 for back side of coin, 50% chance\n        // 0000 0011 for both sides,  100% chance - no reward!\n        uint8 mask;\n        address gambler; // Address of a gambler, used to pay out winning bets.\n    }\n\n    mapping(address => Bet) bets;\n\n    event Reveal(uint reveal); // 1 or 2 전달됨\n    event Payment(address indexed beneficiary, uint amount);\n    event FailedPayment(address indexed beneficiary, uint amount);\n\n    constructor() public {\n        owner = msg.sender;\n    }\n\n    modifier onlyOwner {\n        require(msg.sender == owner, \"Only owner can call this function\");\n        _;\n    }\n\n    // 컨트랙트에서 ether 를 인출\n    function withdrawFunds(address beneficiary, uint withdrawAmount) external onlyOwner {\n        require (withdrawAmount + lockedInBets <= address(this).balance, \"larger than balance.\");\n        sendFunds(beneficiary, withdrawAmount);\n    }\n\n    // funds 를 전송함\n    function sendFunds(address beneficiary, uint amount) private {\n        if(beneficiary.send(amount)) { // 조심!!\n            emit Payment(beneficiary, amount);\n        } else {\n            emit FailedPayment(beneficiary, amount);\n        }\n    }\n\n    function kill() external onlyOwner {\n        require(lockedInBets == 0, \"All bets should be processed before self-destruct\");\n        selfdestruct(owner);\n    }\n\n    function() public payable {}\n\n    // Bet by player (betMask 는 동전의 어느면에 베팅했는지를 의미 (앞 or 뒤)\n    function placeBet(uint8 betMask) external payable {\n\n        uint amount = msg.value;\n\n        require(amount >= MIN_BET && amount <= MAX_BET, \"Amount is out of range.\");\n        require(betMask > 0 && betMask < 256, \"Mask should be 8 bit\");\n\n        Bet storage bet = bets[msg.sender];\n\n        // 베팅종료 후 초기화되는데 초기화 되어 있는지를 확인한다.\n        require(bet.gambler == address(0), \"Bet should be empty state\");\n\n        uint8 numOfBetBit = countBits(betMask);\n\n        bet.amount = amount;\n        bet.numOfBetBit = numOfBetBit;\n        bet.placeBlockNumber = block.number;\n        bet.mask = betMask;\n        bet.gambler = msg.sender;\n\n        // need to lock possible winning amount to pay\n        uint possibleWinningAmount = getWinningAmount(amount, numOfBetBit);\n        lockedInBets += possibleWinningAmount;\n\n        // check whether house has enough ETH to pay the bet.\n        // 상금이 lock 보다 작아야만 베팅할 수 있도록 설정해야 한다.\n        require(lockedInBets < address(this).balance, \"Cannot afford to pay the bet.\");\n    }\n\n    function getWinningAmount(uint amount, uint8 numOfBetBit) private pure returns (uint winningAmount) {\n        require(0 < numOfBetBit && numOfBetBit < MAX_CASE, \"Probability is out of range\");\n\n        uint houseFee = amount * HOUSE_FEE_PERCENT / 100;\n\n        if(houseFee < HOUSE_MIN_FEE) {\n            houseFee = HOUSE_MIN_FEE;\n        }\n\n        // reward calculation is depends on your own idea\n        uint reward = amount / (MAX_CASE + (numOfBetBit-1));\n\n        winningAmount = (amount - houseFee) + reward;\n    }\n\n    // 동전 던지기 결과 메서드\n    function revealResult(uint8 seed) external {\n\n        Bet storage bet = bets[msg.sender];\n        uint amount = bet.amount;\n        uint8 numOfBetBit = bet.numOfBetBit;\n        uint placeBlockNumber = bet.placeBlockNumber;\n        address gambler = bet.gambler;\n\n        require(amount > 0, \"Bet should be in an 'active' state\" );\n\n        // 먼저 블록에 기록되어 있어야만 한다.\n        require(block.number > placeBlockNumber, \"revealResult in the same block as placeBet, or before.\");\n\n        // Random Number Generator\n        bytes32 random = keccak256(abi.encodePacked(blockhash(block.number-seed), blockhash(placeBlockNumber)));\n\n        uint reveal = uint(random) % MAX_CASE;\n\n        uint winningAmount = 0;\n        uint possibleWinningAmount = 0;\n        possibleWinningAmount = getWinningAmount(amount, numOfBetBit);\n\n        if((2 ** reveal) & bet.mask != 0) {\n            winningAmount = possibleWinningAmount;\n        }\n\n        emit Reveal(2 ** reveal);\n\n        if(winningAmount >0) {\n            sendFunds(gambler, winningAmount);\n        }\n\n        lockedInBets -= possibleWinningAmount;\n        clearBet(msg.sender);\n    }\n\n    function clearBet(address player) private {\n        Bet storage bet = bets[player];\n\n        bet.amount = 0;\n        bet.numOfBetBit = 0;\n        bet.placeBlockNumber = 0;\n        bet.mask = 0;\n        bet.gambler = address(0); // NULL\n    }\n\n    // 결과를 보지 않고 환불하고 싶은 경우\n    function refundBet() external {\n        require(block.number > bet.placeBlockNumber, \"refundBet in the same block as placeBet, or before.\");\n\n        Bet storage bet = bets[msg.sender];\n        uint amount = bet.amount;\n\n        require (amount > 0, \"Bet should be in an 'active' state\");\n\n        uint8 numOfBetBit = bet.numOfBetBit;\n\n        // Send the refund.\n        sendFunds(bet.gambler, amount);\n\n        uint possibleWinningAmount;\n        possibleWinningAmount = getWinningAmount(amount, numOfBetBit);\n\n        lockedInBets -= possibleWinningAmount;\n        clearBet(msg.sender);\n    }\n\n    function checkHouseFund() public view onlyOwner returns(uint) {\n        return address(this).balance;\n    }\n\n    function countBits(uint8 _num) internal pure returns (uint8) {\n        uint8 count;\n        while(_num >0) {\n            count += _num & 1;\n            _num >>= 1;\n        }\n        return count;\n    }\n}\n",
  "sourcePath": "/Users/kyung/Desktop/workspace/ethereum/project/react-first/contracts/CoinToFlip.sol",
  "compiler": {
    "name": "solc",
    "version": "0.4.24+commit.e67f0147.Emscripten.clang"
  },
  "schemaVersion": "2.0.1",
  "updatedAt": "2018-12-10T09:39:11.481Z"
}